:020000040040BA
:10000000703800202D01400010B5054C237833B91D
:10001000044B13B10448AFF300800123237010BDDB
:100020002C08002000000000740740000C4B43B176
:100030000C480D4910B5AFF300800C48036823B994
:1000400010BD0A48036833B97047094B002BF7D03D
:10005000BDE810401847064B002BF5D0184700BFED
:1000600000000000740740003008002074074000C2
:100070000000000003B510464FF0110100F08EFAA9
:1000800003BD03B510464FF0180100F087FA03BD19
:1000900003B510464FF0170100F080FA03BD03B519
:1000A00010464FF0010100F079FA03BD03B5104688
:1000B0004FF0030100F072FA03BD03B510464FF094
:1000C000150100F06BFA03BD03B510464FF019019E
:1000D00000F094FA03BD03B510464FF0180100F08C
:1000E0008DFA03BD03B510464FF0130100F086FAF8
:1000F00003BD03B510464FF01A0100F07FFA03BDAF
:1001000003B510464FF01D0100F078FA03BD03B5AA
:1001100010464FF0150100F071FA03BD03B510460B
:100120004FF0140100F06AFA03BD0000DFF880927E
:1001300000F040F900F0A6F94FF000064FF0040877
:100140004FF019094FF0010A00F0B0F94FF005081F
:100150004FF019094FF0010A00F0A8F94FF0060816
:100160004FF019094FF0010A00F0A0F9002E02D05B
:100170004FF0000601E04FF001064FF0000C00F0D8
:100180005DF84FF0FF0BDC45F0D00CF1010C4FF0A7
:100190000007102F51D04FF000034FF0200407FB51
:1001A00004F4202B20D004EB03054FF00051495DEF
:1001B000B1460A4622FA09F202F00102FFF75AFF9D
:1001C00006F103090A4622FA09F202F00102FFF7DA
:1001D00066FF4FF00102FFF793FF4FF00002FFF7B9
:1001E0008FFF03F10103DCE74FF00102FFF796FFF9
:1001F00007F00102FFF768FF4FEA570505F001021B
:10020000FFF769FF4FEA970505F00102FFF76AFF64
:100210004FEAD70505F00102FFF76BFF4FF001022F
:10022000FFF775FF4FF00002FFF771FF4FF000027C
:10023000FFF774FF07F10107ABE7A2E72DE90F47CE
:100240004FF001004FF001031E286ED04FF0010364
:100250001E2B67D04FF00002A0F10105A3F10104AD
:1002600000F065F82244A0F101051C4600F05FF89B
:100270002244A0F1010503F1010400F058F82244E2
:1002800000F10105A3F1010400F051F8224400F14E
:10029000010503F1010400F04AF8224400F10105D0
:1002A0001C4600F044F822440546A3F1010400F086
:1002B0003EF82244054603F1010400F038F82244D8
:1002C00005461C4600F033F8012C0FD0032A06D057
:1002D000984681464FF0000A00F0E8F81FE0984683
:1002E00081464FF0010A00F0E1F818E0022A08DB2D
:1002F000032A0DDC984681464FF0010A00F0D6F83B
:100300000DE0984681464FF0000A00F0CFF806E075
:10031000984681464FF0000A00F0C8F8FFE703F165
:10032000010395E700F101008EE7BDE80F8707B5EF
:10033000002E1DD0102D0FDBA5F110004FF0200175
:1003400000FB01F020444FF00052115C4FEAD10154
:1003500001F001010C462AE04FF0200105FB01F0FD
:1003600020444FF00052115C01F001010C461EE0E8
:10037000102D0FDBA5F110004FF0200100FB01F064
:1003800020444FF00052115C4FEA111101F00101BD
:100390000C460CE04FF0200105FB01F020444FF02B
:1003A0000052115C4FEA510101F001010C4607BDFA
:1003B0000000002000B54FF000004FF0110100F0E8
:1003C000DCF84FF000004FF0180100F0D6F84FF0C5
:1003D00000004FF0170100F0D0F84FF000004FF090
:1003E000010100F0CAF84FF000004FF0030100F0E7
:1003F000C4F84FF000004FF0150100F0BEF84FF0C8
:1004000000004FF0190100F0E8F84FF000004FF045
:10041000180100F0E2F84FF000004FF0130100F077
:10042000DCF84FF000004FF01A0100F0D6F84FF062
:1004300000004FF01D0100F0D0F84FF000004FF029
:10044000150100F0CAF84FF000004FF0140100F061
:10045000C4F84FF00002FFF70DFE4FF00002FFF767
:1004600010FE4FF00002FFF713FE4FF00002FFF7FF
:1004700016FE4FF00002FFF719FE4FF00002FFF7E3
:100480001CFE00BD2DE90552DFF8DC904FF00000A6
:100490004FF00052B0F5007F06D019F801CB02F8FA
:1004A00001CB00F10100F5E7BDE805920FB5012E83
:1004B0002AD0B9F1100F15DBA9F110004FF020017F
:1004C00000FB01F040444FF00052135C03F01703AF
:1004D00001F0000141EA0A014FEAC10141EA0301CA
:1004E00011543DE04FF0200109FB01F0404401F0C0
:1004F000000141EA0A014FF00052135C03F01E03B1
:1005000041EA030111542BE0B9F1100F15DBA9F1F9
:1005100010004FF0200100FB01F0404401F0000109
:1005200041EA0A014FF000524FEA0111135C03F057
:100530000F0341EA0301115412E04FF0200109FBBF
:1005400001F0404401F0000141EA0A014FF000527D
:10055000135C03F01D034FEA410141EA030111540A
:100560000FBD07B507BD00007407400011484FF0EC
:1005700001014FEAC12101607047002801D10E48F6
:1005800000E00E484FF0010202FA01F202600C484E
:100590004FF0010202FA01F202607047012801D116
:1005A000084800E008484FF0010202FA01F2026038
:1005B0007047000010040E40100E0E40140E0E4046
:1005C000A00E0E40300E0E40340E0E4011484FF07B
:1005D00001014FEA413101607047002801D10E4806
:1005E00000E00E484FF0010202FA01F202600C48EE
:1005F0004FF0010202FA01F202607047012801D1B6
:10060000084800E008484FF0010202FA01F20260D7
:100610007047000010040E4010120E4014120E40DD
:10062000A0120E4030120E4034120E40024B13B195
:10063000024800F005B87047000000004D06400079
:10064000002301461A46184600F01EB838B50A4C79
:100650000A4D641BA4100AD004F18043013B05EB52
:100660008305013C55F804399847002CF9D1BDE8C1
:10067000384000F077B800BF7407400070074000B2
:10068000704700BF704700BF2DE9F8432C4D064668
:10069000286898460F469146FFF7F2FF294B1C68E1
:1006A000D4F84831002B3ED05A681F2A1CDC02F1D6
:1006B000010E76B103EB82010124C1F88890D3F8D2
:1006C000880194402043022EC3F88801C1F80881B4
:1006D00023D00232C3F804E0286843F82270FFF701
:1006E000D1FF0020BDE8F883174B0BB34FF4C8705F
:1006F000AFF300800346D8B1D4F84821026000214E
:1007000041600A46C4F848014FF0010EC0F8881154
:10071000C0F88C11002EDCD0CCE7D3F88C110C4340
:10072000C3F88C41D5E704F5A673C4F84831BBE79C
:100730002868FFF7A7FF4FF0FF30BDE8F88300BF40
:10074000280800204C0740000000000000040020A2
:10075000F8B500BFF8BC08BC9E4670472D064000A7
:100760002D004000F8B500BFF8BC08BC9E4670479D
:04077000090040003C
:100774000000000000000000000000000000000075
:100784000000000000000000000000000000000065
:100794000000000000000000000000000000000055
:1007A4000000000000000000000000000000000045
:100B740000000000EC06002054070020BC07002001
:100B84000000000000000000000000000000000061
:100B94000000000000000000000000000000000051
:100BA4000000000000000000000000000000000041
:100BB4000000000000000000000000000000000031
:100BC4000000000000000000000000000000000021
:100BD4000000000000000000000000000000000011
:100BE4000000000000000000000000000000000001
:100BF40000000000000000000000000000000000F1
:100C040000000000000000000000000000000000E0
:100C140000000000000000000100000000000000CF
:100C24000E33CDAB34126DE6ECDE05000B00000094
:100C340000000000000000000000000000000000B0
:100C440000000000000000000000000000000000A0
:100C54000000000000000000000000000000000090
:100C64000000000000000000000000000000000080
:0C0F9400000000000000000048080020E1
:0400000500400000B7
:00000001FF
