S01D000053414D3453205870726F2042617265204D6574616C2E7372656329
S214400000483800201D01400010B5054C237833B910
S214400010044B13B10448AFF300800123237010BD96
S21440002028080020000000008C054000084B10B552
S2144000301BB108490848AFF300800848036803B975
S21440004010BD074B002BFBD0BDE81040184700BF43
S214400050000000002C0800208C0540008C05400065
S2144000600000000003B510464FF0110100F0BAF949
S21440007003BD03B510464FF0180100F0B3F903BDB9
S21440008003B510464FF0170100F0ACF903BD03B5B9
S21440009010464FF0010100F0A5F903BD03B5104628
S2144000A04FF0030100F09EF903BD03B510464FF034
S2144000B0150100F097F903BD03B510464FF019013E
S2144000C000F0C0F903BD03B510464FF0180100F02C
S2144000D0B9F903BD03B510464FF0130100F0B2F96D
S2144000E003BD03B510464FF01A0100F0ABF903BD4F
S2144000F003B510464FF01D0100F0A4F903BD03B54B
S21440010010464FF0150100F09DF903BD03B51046AB
S2144001104FF0140100F096F903BD0000DFF850914F
S21440012000F0A8F800F00EF94FF00A084FF00A0960
S2144001304FF0070A00F01AF94FF00B084FF00A0983
S2144001404FF0070A00F012F94FF00C084FF00A097A
S2144001504FF0070A00F00AF94FF0000700F050F899
S214400160102F4CD04FF000034FF0200407FB04F450
S214400170202B1BD004EB03064FF00051895D0A4646
S21440018002F00102FFF76EFF0A464FEAD20202F083
S2144001900102FFF77CFF4FF00102FFF7A9FF4FF087
S2144001A00002FFF7A5FF03F10103E1E74FF001026C
S2144001B0FFF7ACFF07F00102FFF77EFF4FEA570557
S2144001C005F00102FFF77FFF4FEA970505F00102B1
S2144001D0FFF780FF4FEAD70505F00102FFF781FFE2
S2144001E04FF00102FFF78BFF4FF00002FFF787FF4B
S2144001F04FF00002FFF78AFF07F10107B0E7ABE7D1
S2144002002DE903474FF001004FF001031F280DD0A2
S2144002101F2B08D0984681464FF0000A00F0A6F8FB
S21440022003F10103F4E700F10100EFE7BDE80387BF
S21440023007B5102D0FDBA5F110004FF0200100FB95
S21440024001F040444FF00052115C4FEAD10101F0FA
S21440025001010C460AE04FF0200109FB01F0404442
S2144002604FF00052115C01F001010C4607BD000042
S2144002700000002000B54FF000004FF0110100F0E4
S214400280A0F84FF000004FF0180100F09AF84FF039
S21440029000004FF0170100F094F84FF000004FF0C8
S2144002A0010100F08EF84FF000004FF0030100F01F
S2144002B088F84FF000004FF0150100F082F84FF03C
S2144002C000004FF0190100F0ACF84FF000004FF07E
S2144002D0180100F0A6F84FF000004FF0130100F0B0
S2144002E0A0F84FF000004FF01A0100F09AF84FF0D7
S2144002F000004FF01D0100F094F84FF000004FF062
S214400300150100F08EF84FF000004FF0140100F099
S21440031088F84FF00002FFF7A5FE4FF00002FFF707
S214400320A8FE4FF00002FFF7ABFE4FF00002FFF7CB
S214400330AEFE4FF00002FFF7B1FE4FF00002FFF7AF
S214400340B4FE00BD2DE90552DFF864904FF0000082
S2144003504FF00052B0F5007F06D019F801CB02F8F6
S21440036001CB00F10100F5E7BDE8059207B5B9F10C
S214400370100F10DBA9F110004FF0200100FB01F038
S214400380404401F0000141EA0A014FF000524FEAB2
S214400390C10111540BE04FF0200109FB01F040442D
S2144003A001F0000141EA0A014FF00052115407BD26
S2144003B08C05400011484FF001014FEAC121016011
S2144003C07047002801D10E4800E00E484FF0010269
S2144003D002FA01F202600C484FF0010202FA01F202
S2144003E002607047012801D1084800E008484FF0F5
S2144003F0010202FA01F202607047000010040E404B
S214400400100E0E40140E0E40A00E0E40300E0E4043
S214400410340E0E4011484FF001014FEA4131016061
S2144004207047002801D10E4800E00E484FF0010208
S21440043002FA01F202600C484FF0010202FA01F2A1
S21440044002607047012801D1084800E008484FF094
S214400450010202FA01F202607047000010040E40EA
S21440046010120E4014120E40A0120E4030120E40D3
S21440047034120E40024B13B1024800F005B87047E4
S2144004800000000095044000002301461A46184626
S21440049000F014B838B5074D074C2C1BA41005D0F7
S2144004A0013C55F8043D9847002CF9D1BDE838404A
S2144004B000F064B88C054000880540002DE9F04700
S2144004C0254C2568D5F848410646884692469946C2
S2144004D0C4B360681F2817DC431C76B104EB800564
S2144004E00122C5F888A0D4F8881182401143022E14
S2144004F0C4F88811C5F808911ED00230636044F8ED
S21440050020800020BDE8F087144B03B34FF4C8703A
S214400510AFF300800446D0B1D5F84831002780E8D4
S2144005208800C5F8484138460123C4F88871C4F8A5
S2144005308C71002EE1D0D1E7D4F88C110A43C4F870
S2144005408C21DAE705F5A674C5F84841C1E74FF0B7
S214400550FF30BDE8F08700BF6405400000000000A3
S2144005604300000000040020F8B500BFF8BC08BCFB
S2144005709E467047750440002D004000F8B500BF09
S210400580F8BC08BC9E46704709004000CE
S21440058C000000000000000000000000000000001A
S21440059C000000000000000000000000000000000A
S2144005AC00000000000000000000000000000000FA
S2144005BC00000000000000000000000000000000EA
S21440098C00000000EC06002054070020BC070020A6
S21440099C0000000000000000000000000000000006
S2144009AC00000000000000000000000000000000F6
S2144009BC0000000060054000000000000000000041
S2144009CC00000000000000000000000000000000D6
S2144009DC00000000000000000000000000000000C6
S2144009EC00000000000000000000000000000000B6
S2144009FC00000000000000000000000000000000A6
S214400A0C0000000000000000000000000000000095
S214400A1C0000000000000000000000000000000085
S214400A2C0000000000000000010000000000000074
S214400A3C0E33CDAB34126DE6ECDE05000B00000039
S214400A4C0000000000000000000000000000000055
S214400A5C0000000000000000000000000000000045
S214400A6C0000000000000000000000000000000035
S214400A7C0000000000000000000000000000000025
S804400000BB
